:020000040000FA
:1000000068080020250200006502000009020000C7
:10001000690200006B0200006D0200000000000099
:100020000000000000000000000000006F0200005F
:100030007102000000000000730200007502000061
:1000400077020000770200007702000077020000CC
:1000500077020000770200007702000077020000BC
:1000600077020000770200007702000077020000AC
:10007000770200007702000077020000770200009C
:10008000770200007702000077020000770200008C
:10009000770200007702000077020000770200007C
:1000A000770200007702000077020000770200006C
:1000B000770200007702000077020000770200005C
:1000C000770200007702000077020000DD120000D6
:1000D0005113000077020000770200007702000051
:1000E000770200007702000077020000770200002C
:1000F000770200007702000077020000770200001C
:10010000770200007702000077020000770200000B
:1001100077020000770200007702000077020000FB
:1001200077020000770200007702000077020000EB
:1001300077020000770200007702000077020000DB
:1001400077020000770200007702000077020000CB
:1001500077020000770200007702000077020000BB
:1001600077020000770200007702000077020000AB
:10017000770200007702000077020000770200009B
:10018000770200007702000077020000770200008B
:10019000770200007702000077020000770200007B
:1001A000770200007702000077020000770200006B
:1001B000770200007702000077020000770200005B
:1001C000770200007702000077020000770200004B
:1001D000770200007702000077020000770200003B
:1001E000770200007702000077020000770200002B
:1001F00077020000DFF80CD000F08CF800480047D0
:10020000911B00006808002004207146084202D0BB
:10021000EFF3098001E0EFF308807146004A1047D0
:10022000ED07000014484FF0590101604FF016012E
:1002300001604FF0880101601048416841F480413D
:1002400041600F48416841F002014160416841F05E
:10025000040141600B48804707484FF000010160EE
:1002600009480047FEE7FEE7FEE7FEE7FEE7FEE798
:10027000FEE7FEE7FEE7FEE7000100400002004067
:100280000070004085110000F501000040EA010304
:100290009B0703D009E008C9121F08C0042AFAD23C
:1002A00003E011F8013B00F8013B521EF9D2704700
:1002B0002DE9F05F0546002092469B46884606469B
:1002C000814640241BE0284641464746224600F02E
:1002D00042F853465A46C01A914110D31146184667
:1002E000224600F029F82D1A67EB01084F462246F6
:1002F0000120002100F020F817EB00094E41201EDC
:10030000A4F10104DFDC484631462A464346BDE8F5
:10031000F09F0000064C074D06E0E06840F0010346
:1003200094E8070098471034AC42F6D3FFF766FF15
:10033000F01C0000101D0000202A04DB203A00FA07
:1003400002F1002070479140C2F1200320FA03F32C
:10035000194390407047202A04DB203A21FA02F02A
:100360000021704721FA02F3D040C2F120029140EF
:100370000843194670474FF08040D0F8401241F4CE
:100380008031C0F84012704700F01F0201219140F7
:10039000034A800F02EB800002680A430260704744
:1003A000040200402DE9F84F0D460446FFF7E3FF35
:1003B0004FF08040484ED0F80012C4B141F0040123
:1003C000C0F80012102000F0CFF94FF40020009088
:1003D000424843492844B34688426DD84FF000094B
:1003E0004FF0FF324F464E46AE46012015E041F039
:1003F0000101C0F80012012000F0B6F90020E6E784
:10040000F2B3032839D0042802D0022805D102E033
:100410004FEA8E0501E04FEA4E0502236AB3BBFBAB
:10042000F3F1304CDFF8BCC00C44CCF1000C644557
:1004300020D80224C1F35D0ADFF8A0C00AFB04F152
:1004400001EB0C08DFF8A0C0E0450ED8B1EB950F2A
:1004500002D9A1EB950101E0C1EB9501914204D2D3
:100460000A0099462746064604D040F20121641C42
:100470008C42E1D95B1C202BD0D9401C042800E021
:1004800000E0BDD91948009900EB8630184A0843AE
:1004900002EB49210843B91E08434FF08041C1F8DF
:1004A0004002042000F060F906FB09F6BBFBF6F001
:1004B00078434000BDE8F88F5CB10E494FF08040B2
:1004C000C0F84012042000F04FF9BDE8F84F00F0EA
:1004D000A7B844F21E21F1E7001BB700800F05FD0D
:1004E0008074D21A00F7C2FFC068780400C0FFFF12
:1004F00000FEFFFF1E4208004FF08041D1F80022AD
:100500000243C1F80022704710B500F017FE014801
:10051000006810BD0000002010B500F00FFE01487B
:10052000006810BD000000204FF08040D0F80002AD
:10053000C00700D000487047001BB7004FF0804054
:10054000D0F80002800702D54FF400407047002029
:100550007047000010B500F0F1FD4FF08041D1F878
:1005600034024207134817D0D1F8342202F00702B0
:10057000012A13D0D1F8342202F00702022A10D047
:10058000D1F8342202F00702032A0DD0D1F8341238
:1005900001F0070104290AD0006810BD0068400876
:1005A00010BD0068800810BD0068C00810BD00685C
:1005B000000910BD0000002010B500F0BFFD4FF095
:1005C0008041D1F8340210F0700F144817D0D1F8E0
:1005D0003422C2F30212012A13D0D1F83422C2F31A
:1005E0000212022A10D0D1F83422C2F30212032AD6
:1005F0000DD0D1F83412C1F3021104290AD00068D9
:1006000010BD0068400810BD0068800810BD00687B
:10061000C00810BD0068000910BD000000000020E7
:1006200008B510A10020096800914FF08041D1F871
:10063000401211F4A02F13D10B488A0310D4C1F338
:100640000800C1F38132094B801C1DF80220C1F360
:1006500044215843491C11FB02F1B0FBF1F0C000EA
:1006600008BD000001020204001BB700C0C62D0037
:100670002DE9F0414FF080440746D4F850020E4671
:1006800000F01005D4F8000240F00400C4F80002A5
:10069000102004F5007400F067F8206940F00700AE
:1006A0002061206A20F00F0030432062206920F092
:1006B000070038432061A4F5007400F03FFD002DD1
:1006C00005D1D4F8000220F00400C4F80002BDE80F
:1006D000F0810000F0B510F47F3F2ED04FF0804342
:1006E000D3F8F431DFF878C0DFB21D4BC0F381449A
:1006F0000C3B6FEA90450CF1040603EB8403012FD9
:1007000002D0022C0DD001E0022C02D0AC070AD09E
:100710000AE0C343DC06134B06D000F01F041D2C77
:1007200002D0634600E033461C68C0F38725C0F35F
:100730004416B540AC4314431C60420E52070ED021
:10074000084BC0F30172183B03EB82021368C0F33D
:100750004264C0F304508440A3430B431360F0BDD4
:100760002C0200402802004030B50124054608490B
:10077000A20705E0081EA1F1010101DC002404E04C
:10078000D2F8503235EA0300F4D1204630BD0000E3
:1007900080F52000F0B500230127032507FA03F4B4
:1007A0008C4309D106685C0005FA04FC26EA0C06B5
:1007B00002FA04F4264306605B1C102BEED3F0BD56
:1007C000F0B500230127032507FA03F40C4209D0F2
:1007D000866A5C0005FA04FC26EA0C0602FA04F4B8
:1007E000264386625B1C102BEED3F0BD044603A0AB
:1007F00000F06AFF204601F0E7F9FEE7496E204865
:10080000617264204661756C742048616E646C6529
:10081000720A000010B5094C012211462046FFF76C
:10082000B9FF012202212046FFF7B4FF2046012232
:10083000BDE810400421FFF7ADBF0000C0410040FB
:1008400000F01F02012191404009800000F1E020EA
:10085000C0F800117047000070B50022094D012654
:10086000134606FA02F40C4203D000EB0214236094
:10087000AB54521C102AF4D3D0F800240A43C0F819
:10088000002470BD5400002000EB0110016821F02D
:100890007401016001681A4311430160704730B56B
:1008A00000EB0110DDE9034542608460016821F43A
:1008B0007061016001682B431943016030BD000085
:1008C00010B500EB011001684CF6FF742140016087
:1008D0000168034C04EB034313431943016010BD4B
:1008E0000000FFFF30B54D4D039C10296A547DD2A6
:1008F000DFE801F008101720272F363F464E555EDF
:10090000656D7489D0F8805425F07F051543C0F8D3
:1009100080546BE0D0F8805425F4FE4545EA02226D
:1009200005E0D0F8805425F4FE0545EA0242C0F8FF
:1009300080245BE0D0F8805425F0FE4545EA026251
:10094000F5E7D0F8845425F07F051543C0F88454AA
:100950004CE0D0F8845425F4FE4545EA022205E037
:10096000D0F8845425F4FE0545EA0242C0F88424F8
:100970003CE0D0F8845425F0FE4545EA0262F5E7F4
:10098000D0F8885425F07F051543C0F888542DE031
:10099000D0F8885425F4FE4545EA022205E0D0F857
:1009A000885425F4FE0545EA0242C0F888241DE07B
:1009B000D0F8885425F0FE4545EA0262F5E7D0F804
:1009C0008C5425F07F051543C0F88C540EE0D0F808
:1009D0008C5425F4FE4545EA022205E0D0F88C54FB
:1009E00025F4FE0545EA0242C0F88C2400EB011014
:1009F000016821F003016BB1891C01600849096895
:100A0000611AC16030BDD0F88C5425F0FE4545EA2E
:100A10000262E9E7491C016030BD0000540000207B
:100A20003C8400408368114323F00D030B4343F0E3
:100A3000080181607047000010B541682D4BC1F37B
:100A400008042D499A0498420FD1D2F8180210F0E8
:100A5000300F43D0D2F81802C0F30110012842D061
:100A6000D2F81802C0F3011024E0244B98420FD1B1
:100A7000D2F8180210F0C00F30D0D2F81802C0F32C
:100A8000811001282FD0D2F81802C0F3811023E082
:100A90001B4B9842D2F8180211D110F4406F1DD0B0
:100AA000D2F81802C0F3812001281CD0D2F8180215
:100AB000C0F38120022811D1FFF77EFD0FE010F472
:100AC000405F0BD0D2F81802C0F3013001280AD0E1
:100AD000D2F81802C0F30130022807D00846641C7F
:100AE000B0FBF4F010BDFFF79BFDF8E7FFF732FD18
:100AF000F5E7000000100640001BB700002006408C
:100B00000030064038B52B4C2BA000F0DDFD2DA0A9
:100B100000F0DAFD2FA000F0D7FD32A000F0D4FDE8
:100B200034A000F0D1FD37A000F0CEFD39A000F0D8
:100B3000CBFD3CA000F0C8FD3E4801F027F8C5B24F
:100B40003DA000F0C1FDA5F13100082812D2DFE878
:100B500000F0110406080A0C0E10384C0AE0384C5C
:100B600008E0384C06E0384C04E0384C02E0384CE1
:100B700000E0384C2946224637A000F0A5FD3B4D49
:100B80000823042200212846009400F04DF96868EB
:100B9000C0F308042846FFF74FFF0146224634A061
:100BA00000F092FD2846BDE8384000220121FFF701
:100BB00039BF000000127A0031202920384D487AD0
:100BC000200D0A003220292031364D487A200D0AA6
:100BD000000000003320292032344D487A200D0ACD
:100BE000000000003420292034384D487A200D0AB6
:100BF000000000003520292036304D487A200D0AAB
:100C0000000000003620292037324D487A200D0A96
:100C1000000000003720292038344D487A200D0A82
:100C2000000000003820292039364D487A200D0A6E
:100C300000000000300000200D0A00000024F40035
:100C400000366E01006CDC020087930300A24A04A8
:100C500000BD010500D8B80553656C656374203A82
:100C6000202563202C202538640D0A000030064022
:100C70000D0A5350495F476574427573436C6F6347
:100C80006B203A20253864202C20646976203A2095
:100C900025640D0A000000002DE9F041134C0023EB
:100CA0002360012520B10821114800F023F819E044
:100CB0000F4EAA20083EA6F110023070DD207070A1
:100CC00015800220118800EB01173754491C401C85
:100CD00080B211800828F5D3054813800821083810
:100CE00000F054F82560BDE8F0810000C4490040E0
:100CF0004C0000207CB5224C0E46054602212046C1
:100D0000FFF7AAFD3346002201212046FFF7D8FD58
:100D10000026CDE900564FF440731A4A01212046BF
:100D2000FFF7BDFD00231B22012120460096FFF79F
:100D3000D9FD0023042201212046FFF7A5FD2069EB
:100D400040F0800020610F4C303CE06840F0020031
:100D5000E0600D490C4A083110688307FCD50B6828
:100D60009B0706D502200860E06820F00200E060E2
:100D70007CBDC007F0D00449091D086808607CBD2F
:100D800000800040303006401C8400407CB5234C7D
:100D90000E46054601212046FFF75EFD0022334640
:100DA00011462046FFF78CFD4FF440611C48CDE909
:100DB000000100232A4619462046FFF770FD002057
:100DC0000346014600901A222046FFF78BFD0023C0
:100DD000042219462046FFF757FD206840F08000A6
:100DE00020600F4C203CE06840F00100E0600D49BD
:100DF0000C4A083110688307FCD50B68DB0706D066
:100E000001200860E06820F00100E0607CBDC007C0
:100E1000F0D00449091D086808607CBD00800040CE
:100E2000203006401C8400402DE9F0470446089D10
:100E3000006E1F469246894620F001002066202B56
:100E400000D10027FFF768FB714ADFF8C0C1714B82
:100E5000510406464FF00008B9F1000F13D0C4F852
:100E6000088049EA072040EA0A0040F001002060BB
:100E7000C4F8048064457DD1D1F8180220F0300018
:100E800040F02000B2E0C4F8088048EA072040EAB9
:100E90000A0040F001002060B54220D3644506D12D
:100EA000D1F8180220F0300040F0200015E0944204
:100EB00006D1D1F8180220F0C00040F080000CE00C
:100EC000D1F818029C4204D120F4406040F4006044
:100ED00003E020F4405040F40050C1F818024E489E
:100EE00064450FD1D1F8182212F0300F48D0D1F854
:100EF0001822C2F30112012A3DD0D1F81812C1F311
:100F0000011122E094420FD1D1F8182212F0C00F43
:100F100036D0D1F81822C2F38112012A2BD0D1F891
:100F20001812C1F3811122E0D1F818229C4211D18C
:100F300012F4406F24D0D1F81822C2F38122012A82
:100F400019D0D1F81812C1F38121022918D1FFF765
:100F500033FB15E012F4405F12D0D1F81822C2F32F
:100F60000132012A07D0D1F81812C1F30131022948
:100F700004D005E029E0FFF753FB01E0FFF7EAFAB0
:100F8000B54201D2854203D3C4F80480BDE8F0879E
:100F900040F2FF125DB100EB80014900B1FBF5F1B9
:100FA0000A23491DB1FBF3F1491EFF2904D96168E9
:100FB00011436160000AE9E762686FF308020A43BF
:100FC0006260491CB0FBF1F0E0E7944206D1D1F831
:100FD000180220F0C00040F0800011E0D1F81802A3
:100FE0009C4209D120F4406040F40060C1F818022E
:100FF000BDE8F047FFF7E0BA20F4405040F400505D
:10100000C1F81802BDE8F047FFF7A4BA0010064087
:101010000020064000300640001BB70070B5592084
:10102000840716218822C4F80001C4F80011C4F80E
:101030000021D4F80031002BF5D04FF04025D5F831
:10104000400120F0F000C5F840010F20FFF754FAEE
:101050001B20FFF789FBFFF78EF926490020FFF7D9
:10106000A1F90420FFF780FB00210220FFF700FB1D
:101070001120C4F83402204E3046FFF785F90022D3
:1010800011463046FFF726FB1C4E0022E91430467D
:10109000FFF720FB3046FFF777F90120FFF774F9DF
:1010A000174E3046FFF770F90022E9013046FFF78E
:1010B00011FB00F043F8E06B20F47F00E063E06B8D
:1010C00040F4CC00E063606B6FF30F006063606B13
:1010D00044F2444108436063686A40F470606862A7
:1010E00002224FF470612846FFF76AFB0020C4F823
:1010F000000170BD00B0710B103D80570F00A0665D
:101100000500405F0121044A814002EB1060026843
:101110000A438A43026070470800004006498A6912
:101120001202FCD40A2804D10D220A608A69120234
:10113000FCD40860704700000000074010B5FFF7BE
:101140006FFA0E4A4FF080439060D3F8101201F00E
:101150000701022903D002F10C0050F82100D3F856
:10116000201201F00F01491CB0FBF1F0044910609E
:1011700008444900B0FBF1F0506010BD00000020B1
:1011800020A107001A48016841F470010160194864
:10119000C16C21F00F0141F00801C1644FF08040A3
:1011A000D0F8981241F48021C0F89812D0F80812B3
:1011B00041F00201C0F808120F49D1F8042102F0F1
:1011C000F732C1F80421D1F8082102F0F732C1F852
:1011D0000821D0F8081221F00201C0F808124FF0DF
:1011E0004020D0F8401121F0F001C0F840117047C4
:1011F00088ED00E000C000400010044010B50A4C2B
:101200004FF47A724FF00061204600F04BF82068EE
:1012100040F0005020602320FFF712FB206840F0D0
:101220008040206010BD00000011054010B588B05E
:101230000446202217496846FFF728F8164A174B3C
:101240009003944204D1D0F81402C0F3022110E0BC
:101250009C4204D1D0F81402C0F3023109E01049D5
:10126000D0F814028C4202D1C0F3024101E0C0F375
:101270000251022903D05DF8210008B010BD94424C
:1012800001D09C4202D1FFF765F9F6E7FFF794F928
:10129000F3E70000B01C000000000540000105401D
:1012A0000010054070B516460D460446FFF7BEFF18
:1012B0000023B6EB500F01D9022206E0B0FBF6F294
:1012C000130E02D0591CB2FBF1F21D43256062607F
:1012D0005B1C5A43B0FBF2F070BD000010B515481E
:1012E0008168C1F30001002923D00121816000F051
:1012F000BFFC114B0A219868B0FBF1F201FB120010
:1013000018B9586840F0020058605888411C59804C
:10131000B0F57A7F0DD900205880DA680749501C53
:10132000D86007A000F0D0F90848016881F00101F9
:10133000016010BD0011054034000020DE1C0000DB
:101340002573203A202532640D0A0000C049004070
:1013500010B50B4CE06910F4885F02D104E000F096
:101360006FF9A1694904FAD5A169204611F0710FFE
:1013700005D0BDE810404FF4105100F0ADB810BDDD
:101380000000074010B52448FFF7BCFE234C4FF483
:10139000E131204600F0BEF81421204600F046F965
:1013A000A06820F01000A060A06840F02000A060BD
:1013B000606840F61101084360602420FFF740FA9E
:1013C000FFF7A2F8014616A000F07EF9FFF728F912
:1013D00001461AA000F078F9FFF79EF801461EA01A
:1013E00000F072F9FFF7A0F8014621A000F06CF9B7
:1013F000FFF7A4F8014624A000F066F9FFF7AAF869
:10140000014627A000F060F9FFF7D6F80146BDE8D5
:1014100010402AA000F058B9100000040000074056
:101420000D0A434C4B5F47657443505546726571D6
:10143000203A202538640D0A00000000434C4B5F21
:10144000476574504C4C436C6F636B4672657120FA
:101450003A202538640D0A00434C4B5F47657448B9
:10146000434C4B46726571203A202538640D0A00C2
:10147000434C4B5F47657448585446726571203A37
:10148000202538640D0A0000434C4B5F4765744CBF
:10149000585446726571203A202538640D0A0000C0
:1014A000434C4B5F47657450434C4B3046726571FB
:1014B000203A202538640D0A00000000434C4B5FA1
:1014C00047657450434C4B3146726571203A202574
:1014D00038640D0A000000004A0503D570228261BD
:1014E000082282610A0503D5426942F00102426185
:1014F0008A0401D5064A82614A0401D51F2242644A
:10150000090404D58021C16140F20F318163704725
:10151000010000012DE9FF4104463C480F4600252B
:101520000FC88DE80F003A492E464FF080408C429C
:1015300006D1D0F81412D0F82002C1F301652AE0D8
:1015400034498C4206D1D0F81412D0F82002C1F3ED
:1015500081652BE030498C4208D1D0F81C12D0F8BC
:101560003002C1F3016500F00F0621E02B498C42E7
:1015700008D1D0F81C12D0F83002C1F38165C0F355
:10158000031615E026498C4208D1D0F81C12D0F879
:101590003002C1F30175C0F3032609E021498C42F2
:1015A00006D1D0F81C12D0F830028D0FC0F30336EC
:1015B000002020630320E060A0681B490840A06071
:1015C000E846012D02D1FFF72BF80190002F1AD029
:1015D00058F82510761CB1FBF6F000EB5700B0FB75
:1015E000F7F0801EB0F5803F0AD3B1FBF6F000EBB8
:1015F000C700B0FBF7F06FF0010101EB101001E044
:1016000040F040506062BDE8FF810000801C000097
:10161000000007400010074000200740003007404E
:1016200000400740005007400FFFF0FF026A22F021
:10163000FF020A430262416841F400614160704761
:1016400010B5144800681449C4B2224613A000F033
:101650003BF87F2C04D9BDE8104014A000F034B84A
:101660005A2C09D004DC312C13D0582C11D103E0B2
:10167000782C01D07A2C0CD1BFF34F8F1048016821
:10168000104A01F4E06111430160BFF34F8F00BFC6
:10169000FDE710BD00000740D01C0000257320208E
:1016A0003A2030782532580D0A000000696E7661C4
:1016B0006C696420636F6D6D616E640D0A000000DB
:1016C0000CED00E00400FA050FB4054B10B503A9BA
:1016D000044A029800F018F810BC5DF814FB0000F2
:1016E000811B00002C00002002E008C8121F08C166
:1016F000002AFAD170477047002001E001C1121F93
:10170000002AFBD1704700002DE9FF4F8DB00F4636
:101710000546002606E025280BD0DDE90F1290478C
:101720006D1C761C28780028F5D111B03046BDE834
:10173000F08F0024A246A1460122EC4900E00443B8
:1017400015F8013F203B02FA03F00842F7D1287850
:101750002A2810D06FF02F022878A0F13001092933
:1017600014D80AEB8A0102EB410144F0020400EBB9
:10177000010A6D1CF0E701CF5FEA000A03D544F4CB
:101780000054CAF1000A44F002046D1C28782E2887
:1017900017D115F8010F44F004042A280ED06FF079
:1017A0002F022878A0F1300109290AD809EB890114
:1017B00002EB410100EB01096D1CF2E757F8049BB5
:1017C0006D1C28786C280FD006DC4C2817D06828B0
:1017D0000DD06A2814D104E0742810D07A280FD1D3
:1017E0000DE044F400140AE044F4801401E044F4F1
:1017F00040146978814202D104F580146D1C6D1C7F
:101800002A786E2A1FD00CDC632A31D004DC002A2F
:101810008BD0582A11D1A3E0642A68D0692A0CD150
:1018200065E0732A2ED004DC6F2A73D0702A04D1AD
:101830009BE0752A6FD0782A6ED01046DDE90F1232
:101840009047761C50E1C4F30250022806D00328CA
:1018500009D0042801CF09D0066045E101CFF11776
:10186000C0E9006140E101CF06803DE106703BE147
:1018700017F8040B8DF8000000208DF80100EB46EE
:10188000012003E057F804BB4FF0FF3061074FF031
:10189000000102D40DE008F10101884649450FDA44
:1018A0008045F8DB1BF808100029F4D108E008F1A6
:1018B000010188468142FADB1BF808100029F6D1A5
:1018C000DDE90F23AAEB08008146214600F036F936
:1018D000304400EB080604E0DDE90F121BF8010BB1
:1018E0009047B8F10108F7D221464846F7E00A21AF
:1018F000C4F302534FF0000B0891022B04D001CF28
:10190000C117032B09D00AE0FF1D27F00707F7E8EE
:10191000020108E032E01FE020E000B2C117042B12
:1019200001D140B2C117031E71F1000307DA4FF075
:10193000000CD0EB0C006CEB01012D2302E0230521
:1019400004D52B238DF82430012303E0E30701D0D5
:101950002023F7E7984658E00A2110E010210EE016
:1019600010204FF0000B08900CE010214FF0000BFE
:1019700044F004044FF00809089103E008214FF0F7
:10198000000B0891C4F30253022B04D001CF0021B5
:10199000032B06D006E0FF1D27F00707F7E802013A
:1019A00003E080B2042B00D1C0B24FF0000823073F
:1019B0002BD5702A07D0DDF820C08CF0100C5CEA23
:1019C0000B0C05D00EE040238DF82430012308E0F5
:1019D00050EA010306D030238DF824308DF82520FD
:1019E00002239846DDF820C08CF0080C5CEA0B0C52
:1019F0000BD150EA010301D1630706D530238DF8DE
:101A000024304FF00108A9F10109582A04D038A266
:101A10000B9208AA0A920BE03AA2F9E75B46089AF1
:101A2000FEF746FC0B9B9B5C0A9A521E0A921370AF
:101A300050EA0102F2D10A98ADEB000000F1200B50
:101A4000600702D524F4803401E04FF00109D94544
:101A500002DDA9EB0B0000E0002000EB0B0141448C
:101A60000890AAEB010AE00306D4DDE90F23214622
:101A7000504600F063F806444FF0000908E009A959
:101A800011F80900DDE90F12904709F10109761CF0
:101A9000C145F4DBE0030CD5DDE90F2321465046B8
:101AA00000F04CF8064404E0DDE90F1230209047C6
:101AB000761C0899481E08900029F5DC08E00A9871
:101AC0000A990078491C0A91DDE90F129047761CAB
:101AD000BBF10001ABF1010BF1DC21465046DDE921
:101AE0000F2300F019F806446D1C1BE609280100BD
:101AF0003031323334353637383961626364656684
:101B00000000000030313233343536373839414245
:101B100043444546000000002DE9F04104460025FD
:101B20001E461746880404D405E039462020B047F5
:101B30006D1C641EF9D52846BDE8F0812DE9F04101
:101B4000044600251E469046C80301D5302700E014
:101B50002027880404D505E041463846B0476D1C6F
:101B6000641EF9D52846BDE8F0810000034881696C
:101B70004904FCD40068C0B2704700000000074070
:101B800010B50446FFF7CAFA204610BDFFF7EEBFB6
:101B9000FFF744FAFFF7F6FBFEF7B4FFFEF73AFE55
:101BA000FFF72CFB074C60688007FCD5606820F0CD
:101BB00002006060606820F0040060600020FFF7B1
:101BC0006BF8F0E73400002010B50446016810A05F
:101BD000FFF77AFD11A06168FFF776FD12A0A168FA
:101BE000FFF772FD13A0E168FFF76EFD14A02169F5
:101BF000FFF76AFD15A06169FFF766FD16A0A169F0
:101C0000FFF762FDE169BDE8104016A0FFF75CBD7B
:101C1000723020203D20307825780A007231202053
:101C20003D20307825780A00723220203D2030781F
:101C300025780A00723320203D20307825780A006C
:101C4000723132203D20307825780A006C722020D5
:101C50003D20307825780A00706320203D203078C0
:101C600025780A00707372203D20307825780A00AC
:101C700002488168491C81607047000034000020E0
:101C8000001BB7000000000000800000001BB70030
:101C9000001BB7000000000000800000001BB70020
:101CA000001BB7000000000000800000001BB70010
:101CB000001BB700008000000000000000000000D2
:101CC000000000001027000000000000001BB7000B
:101CD00055415254785F50726F6365737300544D71
:101CE00052335F49525148616E646C657200000066
:101CF000101D00000000002054000000E816000045
:101D0000641D00005400002014080000F8160000B4
:101D1000001BB7000C000000001BB700001BB70041
:101D200000800000000000001027000000000000FC
:101D30000000000000000000001BB70000000000D1
:101D40000000000000000000000000000000000093
:101D50000000000000000000000000000000000083
:041D6000000000007F
:0400000500000225D0
:00000001FF
